{
  "_format": "hh-sol-artifact-1",
  "contractName": "ArbitrationSystem",
  "sourceName": "contracts/contract.sol",
  "abi": [
    {
      "inputs": [
        {
          "internalType": "address",
          "name": "tokenAddress",
          "type": "address"
        }
      ],
      "stateMutability": "nonpayable",
      "type": "constructor"
    },
    {
      "anonymous": false,
      "inputs": [
        {
          "indexed": false,
          "internalType": "string",
          "name": "result",
          "type": "string"
        },
        {
          "indexed": false,
          "internalType": "address[]",
          "name": "winners",
          "type": "address[]"
        }
      ],
      "name": "DisputeResolved",
      "type": "event"
    },
    {
      "anonymous": false,
      "inputs": [
        {
          "components": [
            {
              "internalType": "address",
              "name": "pubKey",
              "type": "address"
            },
            {
              "internalType": "uint256",
              "name": "weight",
              "type": "uint256"
            }
          ],
          "indexed": false,
          "internalType": "struct ArbitrationSystem.SelectJuror[]",
          "name": "selectedJurors",
          "type": "tuple[]"
        }
      ],
      "name": "JurorsSelected",
      "type": "event"
    },
    {
      "anonymous": false,
      "inputs": [
        {
          "components": [
            {
              "internalType": "address",
              "name": "juror",
              "type": "address"
            },
            {
              "internalType": "uint256",
              "name": "amount",
              "type": "uint256"
            }
          ],
          "indexed": false,
          "internalType": "struct ArbitrationSystem.Result[]",
          "name": "rewards",
          "type": "tuple[]"
        },
        {
          "components": [
            {
              "internalType": "address",
              "name": "juror",
              "type": "address"
            },
            {
              "internalType": "uint256",
              "name": "amount",
              "type": "uint256"
            }
          ],
          "indexed": false,
          "internalType": "struct ArbitrationSystem.Result[]",
          "name": "penalties",
          "type": "tuple[]"
        }
      ],
      "name": "RewardsAndPenalties",
      "type": "event"
    },
    {
      "anonymous": false,
      "inputs": [
        {
          "indexed": true,
          "internalType": "address",
          "name": "juror",
          "type": "address"
        },
        {
          "indexed": false,
          "internalType": "uint256",
          "name": "amount",
          "type": "uint256"
        }
      ],
      "name": "TokensStaked",
      "type": "event"
    },
    {
      "anonymous": false,
      "inputs": [
        {
          "indexed": false,
          "internalType": "uint8",
          "name": "winningOption",
          "type": "uint8"
        }
      ],
      "name": "Winner",
      "type": "event"
    },
    {
      "inputs": [],
      "name": "MAX_JURORS",
      "outputs": [
        {
          "internalType": "uint256",
          "name": "",
          "type": "uint256"
        }
      ],
      "stateMutability": "view",
      "type": "function"
    },
    {
      "inputs": [
        {
          "internalType": "uint256",
          "name": "",
          "type": "uint256"
        }
      ],
      "name": "jurors",
      "outputs": [
        {
          "internalType": "address",
          "name": "addr",
          "type": "address"
        },
        {
          "internalType": "uint256",
          "name": "stake",
          "type": "uint256"
        }
      ],
      "stateMutability": "view",
      "type": "function"
    },
    {
      "inputs": [
        {
          "components": [
            {
              "internalType": "address",
              "name": "pubKey",
              "type": "address"
            },
            {
              "internalType": "uint256",
              "name": "weight",
              "type": "uint256"
            }
          ],
          "internalType": "struct ArbitrationSystem.Voter[]",
          "name": "voters",
          "type": "tuple[]"
        },
        {
          "components": [
            {
              "internalType": "address",
              "name": "pubKey",
              "type": "address"
            },
            {
              "internalType": "uint256",
              "name": "voted",
              "type": "uint256"
            }
          ],
          "internalType": "struct ArbitrationSystem.Vote[]",
          "name": "votes",
          "type": "tuple[]"
        }
      ],
      "name": "resolveDispute",
      "outputs": [],
      "stateMutability": "nonpayable",
      "type": "function"
    },
    {
      "inputs": [],
      "name": "selectJurors",
      "outputs": [
        {
          "components": [
            {
              "internalType": "address",
              "name": "pubKey",
              "type": "address"
            },
            {
              "internalType": "uint256",
              "name": "weight",
              "type": "uint256"
            }
          ],
          "internalType": "struct ArbitrationSystem.SelectJuror[]",
          "name": "",
          "type": "tuple[]"
        }
      ],
      "stateMutability": "nonpayable",
      "type": "function"
    },
    {
      "inputs": [
        {
          "internalType": "uint256",
          "name": "amount",
          "type": "uint256"
        }
      ],
      "name": "stakeTokens",
      "outputs": [],
      "stateMutability": "nonpayable",
      "type": "function"
    },
    {
      "inputs": [],
      "name": "token",
      "outputs": [
        {
          "internalType": "contract IERC20",
          "name": "",
          "type": "address"
        }
      ],
      "stateMutability": "view",
      "type": "function"
    },
    {
      "inputs": [],
      "name": "totalStakedTokens",
      "outputs": [
        {
          "internalType": "uint256",
          "name": "",
          "type": "uint256"
        }
      ],
      "stateMutability": "view",
      "type": "function"
    },
    {
      "inputs": [
        {
          "internalType": "address",
          "name": "",
          "type": "address"
        }
      ],
      "name": "voterWeights",
      "outputs": [
        {
          "internalType": "uint256",
          "name": "",
          "type": "uint256"
        }
      ],
      "stateMutability": "view",
      "type": "function"
    }
  ],
  "bytecode": "0x60806040523480156200001157600080fd5b50604051620021d5380380620021d58339818101604052810190620000379190620000e8565b806000806101000a81548173ffffffffffffffffffffffffffffffffffffffff021916908373ffffffffffffffffffffffffffffffffffffffff160217905550506200011a565b600080fd5b600073ffffffffffffffffffffffffffffffffffffffff82169050919050565b6000620000b08262000083565b9050919050565b620000c281620000a3565b8114620000ce57600080fd5b50565b600081519050620000e281620000b7565b92915050565b6000602082840312156200010157620001006200007e565b5b60006200011184828501620000d1565b91505092915050565b6120ab806200012a6000396000f3fe608060405234801561001057600080fd5b50600436106100885760003560e01c80637aa712251161005b5780637aa71225146101155780637cd38ff8146101335780639677203914610164578063fc0c546a1461018057610088565b806304e8940d1461008d5780633ae73259146100ab578063414f8e76146100c95780637547c7a3146100f9575b600080fd5b61009561019e565b6040516100a291906112f5565b60405180910390f35b6100b36101a3565b6040516100c091906112f5565b60405180910390f35b6100e360048036038101906100de9190611378565b6101a9565b6040516100f091906112f5565b60405180910390f35b610113600480360381019061010e91906113d1565b6101c1565b005b61011d6105bf565b60405161012a91906114fa565b60405180910390f35b61014d600480360381019061014891906113d1565b6107a6565b60405161015b92919061152b565b60405180910390f35b61017e6004803603810190610179919061160f565b6107fa565b005b61018861114d565b60405161019591906116ef565b60405180910390f35b606481565b60025481565b60036020528060005260406000206000915090505481565b606460018054905010610209576040517f08c379a000000000000000000000000000000000000000000000000000000000815260040161020090611767565b60405180910390fd5b8060008054906101000a900473ffffffffffffffffffffffffffffffffffffffff1673ffffffffffffffffffffffffffffffffffffffff166370a08231336040518263ffffffff1660e01b81526004016102639190611787565b602060405180830381865afa158015610280573d6000803e3d6000fd5b505050506040513d601f19601f820116820180604052508101906102a491906117b7565b116102e4576040517f08c379a00000000000000000000000000000000000000000000000000000000081526004016102db90611830565b60405180910390fd5b60008054906101000a900473ffffffffffffffffffffffffffffffffffffffff1673ffffffffffffffffffffffffffffffffffffffff166323b872dd3330846040518463ffffffff1660e01b815260040161034193929190611850565b6020604051808303816000875af1158015610360573d6000803e3d6000fd5b505050506040513d601f19601f8201168201806040525081019061038491906118bf565b6103c3576040517f08c379a00000000000000000000000000000000000000000000000000000000081526004016103ba90611938565b60405180910390fd5b6000805b6001805490508110156104a4573373ffffffffffffffffffffffffffffffffffffffff16600182815481106103ff576103fe611958565b5b906000526020600020906002020160000160009054906101000a900473ffffffffffffffffffffffffffffffffffffffff1673ffffffffffffffffffffffffffffffffffffffff160361049157826001828154811061046157610460611958565b5b9060005260206000209060020201600101600082825461048191906119b6565b92505081905550600191506104a4565b808061049c906119ea565b9150506103c7565b508061055457600160405180604001604052803373ffffffffffffffffffffffffffffffffffffffff16815260200184815250908060018154018082558091505060019003906000526020600020906002020160009091909190915060008201518160000160006101000a81548173ffffffffffffffffffffffffffffffffffffffff021916908373ffffffffffffffffffffffffffffffffffffffff1602179055506020820151816001015550505b816002600082825461056691906119b6565b925050819055503373ffffffffffffffffffffffffffffffffffffffff167fb539ca1e5c8d398ddf1c41c30166f33404941683be4683319b57669a93dad4ef836040516105b391906112f5565b60405180910390a25050565b6060600060018054905090506000811161060e576040517f08c379a000000000000000000000000000000000000000000000000000000000815260040161060590611a7e565b60405180910390fd5b60008167ffffffffffffffff81111561062a57610629611a9e565b5b60405190808252806020026020018201604052801561066357816020015b61065061127c565b8152602001906001900390816106485790505b509050600a82116107a05760005b8281101561075e57600060025460646001848154811061069457610693611958565b5b9060005260206000209060020201600101546106b09190611acd565b6106ba9190611b3e565b90506040518060400160405280600184815481106106db576106da611958565b5b906000526020600020906002020160000160009054906101000a900473ffffffffffffffffffffffffffffffffffffffff1673ffffffffffffffffffffffffffffffffffffffff1681526020018281525083838151811061073f5761073e611958565b5b6020026020010181905250508080610756906119ea565b915050610671565b507fe9c0def359e241a2560944afb599831a33c9223926c6fb89a83be46476d1568b8160405161078e91906114fa565b60405180910390a180925050506107a3565b50505b90565b600181815481106107b657600080fd5b90600052602060002090600202016000915090508060000160009054906101000a900473ffffffffffffffffffffffffffffffffffffffff16908060010154905082565b6000848490501180156108105750600082829050115b61084f576040517f08c379a000000000000000000000000000000000000000000000000000000000815260040161084690611bbb565b60405180910390fd5b60008060005b868690508110156108fd5786868281811061087357610872611958565b5b905060400201602001356003600089898581811061089457610893611958565b5b90506040020160000160208101906108ac9190611378565b73ffffffffffffffffffffffffffffffffffffffff1673ffffffffffffffffffffffffffffffffffffffff1681526020019081526020016000208190555080806108f5906119ea565b915050610855565b5060005b84849050811015610a7b5760006003600087878581811061092557610924611958565b5b905060400201600001602081019061093d9190611378565b73ffffffffffffffffffffffffffffffffffffffff1673ffffffffffffffffffffffffffffffffffffffff168152602001908152602001600020549050600081116109bd576040517f08c379a00000000000000000000000000000000000000000000000000000000081526004016109b490611c27565b60405180910390fd5b60018686848181106109d2576109d1611958565b5b90506040020160200135036109f45780846109ed91906119b6565b9350610a67565b6002868684818110610a0957610a08611958565b5b9050604002016020013503610a2b578083610a2491906119b6565b9250610a66565b6040517f08c379a0000000000000000000000000000000000000000000000000000000008152600401610a5d90611c93565b60405180910390fd5b5b508080610a73906119ea565b915050610901565b506000818311610a8c576002610a8f565b60015b90507f95203fbf57fb7c01968a95795ed643f953b7afbabc122e35b74262265aa6093e81604051610ac09190611ccf565b60405180910390a160008585905067ffffffffffffffff811115610ae757610ae6611a9e565b5b604051908082528060200260200182016040528015610b2057816020015b610b0d6112ac565b815260200190600190039081610b055790505b50905060008686905067ffffffffffffffff811115610b4257610b41611a9e565b5b604051908082528060200260200182016040528015610b7b57816020015b610b686112ac565b815260200190600190039081610b605790505b50905060008060008060005b8b8b9050811015610f205760008c8c83818110610ba757610ba6611958565b5b9050604002016000016020810190610bbf9190611378565b90506000610bcc82611171565b6040518060400160405290816000820160009054906101000a900473ffffffffffffffffffffffffffffffffffffffff1673ffffffffffffffffffffffffffffffffffffffff1673ffffffffffffffffffffffffffffffffffffffff168152602001600182015481525050905060008160200151905060008111610c85576040517f08c379a0000000000000000000000000000000000000000000000000000000008152600401610c7c90611d36565b60405180910390fd5b8a60ff168f8f86818110610c9c57610c9b611958565b5b9050604002016020013514610efb5760006064601483610cbc9190611acd565b610cc69190611b3e565b90508060008054906101000a900473ffffffffffffffffffffffffffffffffffffffff1673ffffffffffffffffffffffffffffffffffffffff166370a08231306040518263ffffffff1660e01b8152600401610d229190611787565b602060405180830381865afa158015610d3f573d6000803e3d6000fd5b505050506040513d601f19601f82011682018060405250810190610d6391906117b7565b1015610da4576040517f08c379a0000000000000000000000000000000000000000000000000000000008152600401610d9b90611dc8565b60405180910390fd5b8086610db091906119b6565b955060008183610dc09190611de8565b905060008054906101000a900473ffffffffffffffffffffffffffffffffffffffff1673ffffffffffffffffffffffffffffffffffffffff1663a9059cbb86836040518363ffffffff1660e01b8152600401610e1d92919061152b565b6020604051808303816000875af1158015610e3c573d6000803e3d6000fd5b505050506040513d601f19601f82011682018060405250810190610e6091906118bf565b610e9f576040517f08c379a0000000000000000000000000000000000000000000000000000000008152600401610e9690611e68565b60405180910390fd5b60405180604001604052808673ffffffffffffffffffffffffffffffffffffffff168152602001838152508b8a80610ed6906119ea565b9b5081518110610ee957610ee8611958565b5b60200260200101819052505050610f0a565b8086610f0791906119b6565b95505b5050508080610f18906119ea565b915050610b87565b5060005b8b8b9050811015611104578760ff168c8c83818110610f4657610f45611958565b5b90506040020160200135036110f15760008c8c83818110610f6a57610f69611958565b5b9050604002016000016020810190610f829190611378565b90506000610f8f82611171565b6001015490506000858583610fa49190611acd565b610fae9190611b3e565b905060008054906101000a900473ffffffffffffffffffffffffffffffffffffffff1673ffffffffffffffffffffffffffffffffffffffff1663a9059cbb848484610ff991906119b6565b6040518363ffffffff1660e01b815260040161101692919061152b565b6020604051808303816000875af1158015611035573d6000803e3d6000fd5b505050506040513d601f19601f8201168201806040525081019061105991906118bf565b611098576040517f08c379a000000000000000000000000000000000000000000000000000000000815260040161108f90611ed4565b60405180910390fd5b60405180604001604052808473ffffffffffffffffffffffffffffffffffffffff168152602001828152508a89806110cf906119ea565b9a50815181106110e2576110e1611958565b5b60200260200101819052505050505b80806110fc906119ea565b915050610f24565b507fe48eadf6eed45fb880deef5f1f12cbc0779715111907f22d786db23e04a7fdfc8686604051611136929190611fd2565b60405180910390a150505050505050505050505050565b60008054906101000a900473ffffffffffffffffffffffffffffffffffffffff1681565b600080600090505b60018054905081101561123b578273ffffffffffffffffffffffffffffffffffffffff16600182815481106111b1576111b0611958565b5b906000526020600020906002020160000160009054906101000a900473ffffffffffffffffffffffffffffffffffffffff1673ffffffffffffffffffffffffffffffffffffffff1603611228576001818154811061121257611211611958565b5b9060005260206000209060020201915050611277565b8080611233906119ea565b915050611179565b506040517f08c379a000000000000000000000000000000000000000000000000000000000815260040161126e90612055565b60405180910390fd5b919050565b6040518060400160405280600073ffffffffffffffffffffffffffffffffffffffff168152602001600081525090565b6040518060400160405280600073ffffffffffffffffffffffffffffffffffffffff168152602001600081525090565b6000819050919050565b6112ef816112dc565b82525050565b600060208201905061130a60008301846112e6565b92915050565b600080fd5b600080fd5b600073ffffffffffffffffffffffffffffffffffffffff82169050919050565b60006113458261131a565b9050919050565b6113558161133a565b811461136057600080fd5b50565b6000813590506113728161134c565b92915050565b60006020828403121561138e5761138d611310565b5b600061139c84828501611363565b91505092915050565b6113ae816112dc565b81146113b957600080fd5b50565b6000813590506113cb816113a5565b92915050565b6000602082840312156113e7576113e6611310565b5b60006113f5848285016113bc565b91505092915050565b600081519050919050565b600082825260208201905092915050565b6000819050602082019050919050565b6114338161133a565b82525050565b611442816112dc565b82525050565b60408201600082015161145e600085018261142a565b5060208201516114716020850182611439565b50505050565b60006114838383611448565b60408301905092915050565b6000602082019050919050565b60006114a7826113fe565b6114b18185611409565b93506114bc8361141a565b8060005b838110156114ed5781516114d48882611477565b97506114df8361148f565b9250506001810190506114c0565b5085935050505092915050565b60006020820190508181036000830152611514818461149c565b905092915050565b6115258161133a565b82525050565b6000604082019050611540600083018561151c565b61154d60208301846112e6565b9392505050565b600080fd5b600080fd5b600080fd5b60008083601f84011261157957611578611554565b5b8235905067ffffffffffffffff81111561159657611595611559565b5b6020830191508360408202830111156115b2576115b161155e565b5b9250929050565b60008083601f8401126115cf576115ce611554565b5b8235905067ffffffffffffffff8111156115ec576115eb611559565b5b6020830191508360408202830111156116085761160761155e565b5b9250929050565b6000806000806040858703121561162957611628611310565b5b600085013567ffffffffffffffff81111561164757611646611315565b5b61165387828801611563565b9450945050602085013567ffffffffffffffff81111561167657611675611315565b5b611682878288016115b9565b925092505092959194509250565b6000819050919050565b60006116b56116b06116ab8461131a565b611690565b61131a565b9050919050565b60006116c78261169a565b9050919050565b60006116d9826116bc565b9050919050565b6116e9816116ce565b82525050565b600060208201905061170460008301846116e0565b92915050565b600082825260208201905092915050565b7f4d6178206a75726f727320726561636865640000000000000000000000000000600082015250565b600061175160128361170a565b915061175c8261171b565b602082019050919050565b6000602082019050818103600083015261178081611744565b9050919050565b600060208201905061179c600083018461151c565b92915050565b6000815190506117b1816113a5565b92915050565b6000602082840312156117cd576117cc611310565b5b60006117db848285016117a2565b91505092915050565b7f4e6f7420656e6f7567682062616c616e63650000000000000000000000000000600082015250565b600061181a60128361170a565b9150611825826117e4565b602082019050919050565b600060208201905081810360008301526118498161180d565b9050919050565b6000606082019050611865600083018661151c565b611872602083018561151c565b61187f60408301846112e6565b949350505050565b60008115159050919050565b61189c81611887565b81146118a757600080fd5b50565b6000815190506118b981611893565b92915050565b6000602082840312156118d5576118d4611310565b5b60006118e3848285016118aa565b91505092915050565b7f5472616e73666572206661696c65640000000000000000000000000000000000600082015250565b6000611922600f8361170a565b915061192d826118ec565b602082019050919050565b6000602082019050818103600083015261195181611915565b9050919050565b7f4e487b7100000000000000000000000000000000000000000000000000000000600052603260045260246000fd5b7f4e487b7100000000000000000000000000000000000000000000000000000000600052601160045260246000fd5b60006119c1826112dc565b91506119cc836112dc565b92508282019050808211156119e4576119e3611987565b5b92915050565b60006119f5826112dc565b91507fffffffffffffffffffffffffffffffffffffffffffffffffffffffffffffffff8203611a2757611a26611987565b5b600182019050919050565b7f4e6f206a75726f727320617661696c61626c6500000000000000000000000000600082015250565b6000611a6860138361170a565b9150611a7382611a32565b602082019050919050565b60006020820190508181036000830152611a9781611a5b565b9050919050565b7f4e487b7100000000000000000000000000000000000000000000000000000000600052604160045260246000fd5b6000611ad8826112dc565b9150611ae3836112dc565b9250828202611af1816112dc565b91508282048414831517611b0857611b07611987565b5b5092915050565b7f4e487b7100000000000000000000000000000000000000000000000000000000600052601260045260246000fd5b6000611b49826112dc565b9150611b54836112dc565b925082611b6457611b63611b0f565b5b828204905092915050565b7f566f7465727320616e6420766f7465732063616e6e6f7420626520656d707479600082015250565b6000611ba560208361170a565b9150611bb082611b6f565b602082019050919050565b60006020820190508181036000830152611bd481611b98565b9050919050565b7f496e76616c6964206f7220756e7265676973746572656420766f746572000000600082015250565b6000611c11601d8361170a565b9150611c1c82611bdb565b602082019050919050565b60006020820190508181036000830152611c4081611c04565b9050919050565b7f496e76616c696420766f7465206f7074696f6e00000000000000000000000000600082015250565b6000611c7d60138361170a565b9150611c8882611c47565b602082019050919050565b60006020820190508181036000830152611cac81611c70565b9050919050565b600060ff82169050919050565b611cc981611cb3565b82525050565b6000602082019050611ce46000830184611cc0565b92915050565b7f5374616b65206d7573742062652067726561746572207468616e207a65726f00600082015250565b6000611d20601f8361170a565b9150611d2b82611cea565b602082019050919050565b60006020820190508181036000830152611d4f81611d13565b9050919050565b7f496e73756666696369656e7420636f6e74726163742062616c616e636520666f60008201527f722070656e616c74696573000000000000000000000000000000000000000000602082015250565b6000611db2602b8361170a565b9150611dbd82611d56565b604082019050919050565b60006020820190508181036000830152611de181611da5565b9050919050565b6000611df3826112dc565b9150611dfe836112dc565b9250828203905081811115611e1657611e15611987565b5b92915050565b7f50656e616c7479207472616e73666572206661696c6564000000000000000000600082015250565b6000611e5260178361170a565b9150611e5d82611e1c565b602082019050919050565b60006020820190508181036000830152611e8181611e45565b9050919050565b7f526577617264207472616e73666572206661696c656400000000000000000000600082015250565b6000611ebe60168361170a565b9150611ec982611e88565b602082019050919050565b60006020820190508181036000830152611eed81611eb1565b9050919050565b600081519050919050565b600082825260208201905092915050565b6000819050602082019050919050565b604082016000820151611f36600085018261142a565b506020820151611f496020850182611439565b50505050565b6000611f5b8383611f20565b60408301905092915050565b6000602082019050919050565b6000611f7f82611ef4565b611f898185611eff565b9350611f9483611f10565b8060005b83811015611fc5578151611fac8882611f4f565b9750611fb783611f67565b925050600181019050611f98565b5085935050505092915050565b60006040820190508181036000830152611fec8185611f74565b905081810360208301526120008184611f74565b90509392505050565b7f4a75726f72206e6f7420666f756e640000000000000000000000000000000000600082015250565b600061203f600f8361170a565b915061204a82612009565b602082019050919050565b6000602082019050818103600083015261206e81612032565b905091905056fea264697066735822122046dee8dece6d67733fbd8b509280a908d3b0309e836db09362db1b6403ed672164736f6c63430008140033",
  "linkReferences": {},
  "deployedLinkReferences": {}
}