{
  "_format": "hh-sol-artifact-1",
  "contractName": "TokenAwarder",
  "sourceName": "contracts/TokenAwarded.sol",
  "abi": [
    {
      "inputs": [
        {
          "internalType": "contract MyToken",
          "name": "_token",
          "type": "address"
        },
        {
          "internalType": "uint256",
          "name": "_awardAmount",
          "type": "uint256"
        }
      ],
      "stateMutability": "nonpayable",
      "type": "constructor"
    },
    {
      "anonymous": false,
      "inputs": [
        {
          "indexed": false,
          "internalType": "address",
          "name": "recipient",
          "type": "address"
        },
        {
          "indexed": false,
          "internalType": "uint256",
          "name": "amount",
          "type": "uint256"
        }
      ],
      "name": "TokensAwarded",
      "type": "event"
    },
    {
      "inputs": [],
      "name": "awardAmount",
      "outputs": [
        {
          "internalType": "uint256",
          "name": "",
          "type": "uint256"
        }
      ],
      "stateMutability": "view",
      "type": "function"
    },
    {
      "inputs": [],
      "name": "claimTokens",
      "outputs": [],
      "stateMutability": "nonpayable",
      "type": "function"
    },
    {
      "inputs": [
        {
          "internalType": "address",
          "name": "",
          "type": "address"
        }
      ],
      "name": "hasClaimed",
      "outputs": [
        {
          "internalType": "bool",
          "name": "",
          "type": "bool"
        }
      ],
      "stateMutability": "view",
      "type": "function"
    },
    {
      "inputs": [],
      "name": "token",
      "outputs": [
        {
          "internalType": "contract MyToken",
          "name": "",
          "type": "address"
        }
      ],
      "stateMutability": "view",
      "type": "function"
    }
  ],
  "bytecode": "0x608060405234801561001057600080fd5b506040516107053803806107058339818101604052810190610032919061012b565b816000806101000a81548173ffffffffffffffffffffffffffffffffffffffff021916908373ffffffffffffffffffffffffffffffffffffffff16021790555080600281905550505061016b565b600080fd5b600073ffffffffffffffffffffffffffffffffffffffff82169050919050565b60006100b082610085565b9050919050565b60006100c2826100a5565b9050919050565b6100d2816100b7565b81146100dd57600080fd5b50565b6000815190506100ef816100c9565b92915050565b6000819050919050565b610108816100f5565b811461011357600080fd5b50565b600081519050610125816100ff565b92915050565b6000806040838503121561014257610141610080565b5b6000610150858286016100e0565b925050602061016185828601610116565b9150509250929050565b61058b8061017a6000396000f3fe608060405234801561001057600080fd5b506004361061004c5760003560e01c806348c54b9d1461005157806373b2e80e1461005b578063e9893c671461008b578063fc0c546a146100a9575b600080fd5b6100596100c7565b005b61007560048036038101906100709190610336565b610289565b604051610082919061037e565b60405180910390f35b6100936102a9565b6040516100a091906103b2565b60405180910390f35b6100b16102af565b6040516100be919061042c565b60405180910390f35b600160003373ffffffffffffffffffffffffffffffffffffffff1673ffffffffffffffffffffffffffffffffffffffff16815260200190815260200160002060009054906101000a900460ff1615610154576040517f08c379a000000000000000000000000000000000000000000000000000000000815260040161014b906104a4565b60405180910390fd5b60008054906101000a900473ffffffffffffffffffffffffffffffffffffffff1673ffffffffffffffffffffffffffffffffffffffff1663a9059cbb336002546040518363ffffffff1660e01b81526004016101b19291906104d3565b6020604051808303816000875af11580156101d0573d6000803e3d6000fd5b505050506040513d601f19601f820116820180604052508101906101f49190610528565b5060018060003373ffffffffffffffffffffffffffffffffffffffff1673ffffffffffffffffffffffffffffffffffffffff16815260200190815260200160002060006101000a81548160ff0219169083151502179055507fca0c05bc2d37fa8afaa7b8200bb281ba49ac03bf601026fe5731564c2a662e8e3360025460405161027f9291906104d3565b60405180910390a1565b60016020528060005260406000206000915054906101000a900460ff1681565b60025481565b60008054906101000a900473ffffffffffffffffffffffffffffffffffffffff1681565b600080fd5b600073ffffffffffffffffffffffffffffffffffffffff82169050919050565b6000610303826102d8565b9050919050565b610313816102f8565b811461031e57600080fd5b50565b6000813590506103308161030a565b92915050565b60006020828403121561034c5761034b6102d3565b5b600061035a84828501610321565b91505092915050565b60008115159050919050565b61037881610363565b82525050565b6000602082019050610393600083018461036f565b92915050565b6000819050919050565b6103ac81610399565b82525050565b60006020820190506103c760008301846103a3565b92915050565b6000819050919050565b60006103f26103ed6103e8846102d8565b6103cd565b6102d8565b9050919050565b6000610404826103d7565b9050919050565b6000610416826103f9565b9050919050565b6104268161040b565b82525050565b6000602082019050610441600083018461041d565b92915050565b600082825260208201905092915050565b7f546f6b656e7320616c726561647920636c61696d656400000000000000000000600082015250565b600061048e601683610447565b915061049982610458565b602082019050919050565b600060208201905081810360008301526104bd81610481565b9050919050565b6104cd816102f8565b82525050565b60006040820190506104e860008301856104c4565b6104f560208301846103a3565b9392505050565b61050581610363565b811461051057600080fd5b50565b600081519050610522816104fc565b92915050565b60006020828403121561053e5761053d6102d3565b5b600061054c84828501610513565b9150509291505056fea264697066735822122003e1bf3bf9c2e0e36556e9e18e04ed653a9f73f150c8df6e6e4fab5bd3d0452864736f6c63430008140033",
  "linkReferences": {},
  "deployedLinkReferences": {}
}