{
  "_format": "hh-sol-artifact-1",
  "contractName": "TokenSale",
  "sourceName": "contracts/TokenSale.sol",
  "abi": [
    {
      "inputs": [
        {
          "internalType": "contract MyToken",
          "name": "_token",
          "type": "address"
        },
        {
          "internalType": "uint256",
          "name": "_initialPrice",
          "type": "uint256"
        },
        {
          "internalType": "uint256",
          "name": "_priceIncrement",
          "type": "uint256"
        }
      ],
      "stateMutability": "nonpayable",
      "type": "constructor"
    },
    {
      "anonymous": false,
      "inputs": [
        {
          "indexed": false,
          "internalType": "uint256",
          "name": "newPrice",
          "type": "uint256"
        }
      ],
      "name": "PriceUpdated",
      "type": "event"
    },
    {
      "anonymous": false,
      "inputs": [
        {
          "indexed": false,
          "internalType": "address",
          "name": "buyer",
          "type": "address"
        },
        {
          "indexed": false,
          "internalType": "uint256",
          "name": "amount",
          "type": "uint256"
        }
      ],
      "name": "TokensPurchased",
      "type": "event"
    },
    {
      "inputs": [
        {
          "internalType": "uint256",
          "name": "amount",
          "type": "uint256"
        }
      ],
      "name": "buyTokens",
      "outputs": [],
      "stateMutability": "payable",
      "type": "function"
    },
    {
      "inputs": [],
      "name": "owner",
      "outputs": [
        {
          "internalType": "address",
          "name": "",
          "type": "address"
        }
      ],
      "stateMutability": "view",
      "type": "function"
    },
    {
      "inputs": [],
      "name": "price",
      "outputs": [
        {
          "internalType": "uint256",
          "name": "",
          "type": "uint256"
        }
      ],
      "stateMutability": "view",
      "type": "function"
    },
    {
      "inputs": [],
      "name": "priceIncrement",
      "outputs": [
        {
          "internalType": "uint256",
          "name": "",
          "type": "uint256"
        }
      ],
      "stateMutability": "view",
      "type": "function"
    },
    {
      "inputs": [],
      "name": "token",
      "outputs": [
        {
          "internalType": "contract MyToken",
          "name": "",
          "type": "address"
        }
      ],
      "stateMutability": "view",
      "type": "function"
    },
    {
      "inputs": [],
      "name": "withdraw",
      "outputs": [],
      "stateMutability": "nonpayable",
      "type": "function"
    }
  ],
  "bytecode": "0x60806040523480156200001157600080fd5b5060405162000b6238038062000b62833981810160405281019062000037919062000188565b826000806101000a81548173ffffffffffffffffffffffffffffffffffffffff021916908373ffffffffffffffffffffffffffffffffffffffff16021790555033600160006101000a81548173ffffffffffffffffffffffffffffffffffffffff021916908373ffffffffffffffffffffffffffffffffffffffff1602179055508160028190555080600381905550505050620001e4565b600080fd5b600073ffffffffffffffffffffffffffffffffffffffff82169050919050565b60006200010182620000d4565b9050919050565b60006200011582620000f4565b9050919050565b620001278162000108565b81146200013357600080fd5b50565b60008151905062000147816200011c565b92915050565b6000819050919050565b62000162816200014d565b81146200016e57600080fd5b50565b600081519050620001828162000157565b92915050565b600080600060608486031215620001a457620001a3620000cf565b5b6000620001b48682870162000136565b9350506020620001c78682870162000171565b9250506040620001da8682870162000171565b9150509250925092565b61096e80620001f46000396000f3fe6080604052600436106100555760003560e01c8063280d62ac1461005a5780633610724e146100855780633ccfd60b146100a15780638da5cb5b146100b8578063a035b1fe146100e3578063fc0c546a1461010e575b600080fd5b34801561006657600080fd5b5061006f610139565b60405161007c919061051f565b60405180910390f35b61009f600480360381019061009a919061056b565b61013f565b005b3480156100ad57600080fd5b506100b66103bb565b005b3480156100c457600080fd5b506100cd6104b6565b6040516100da91906105d9565b60405180910390f35b3480156100ef57600080fd5b506100f86104dc565b604051610105919061051f565b60405180910390f35b34801561011a57600080fd5b506101236104e2565b6040516101309190610653565b60405180910390f35b60035481565b6002548161014d919061069d565b341461018e576040517f08c379a00000000000000000000000000000000000000000000000000000000081526004016101859061073c565b60405180910390fd5b8060008054906101000a900473ffffffffffffffffffffffffffffffffffffffff1673ffffffffffffffffffffffffffffffffffffffff166370a08231600160009054906101000a900473ffffffffffffffffffffffffffffffffffffffff166040518263ffffffff1660e01b815260040161020a91906105d9565b602060405180830381865afa158015610227573d6000803e3d6000fd5b505050506040513d601f19601f8201168201806040525081019061024b9190610771565b101561028c576040517f08c379a0000000000000000000000000000000000000000000000000000000008152600401610283906107ea565b60405180910390fd5b60008054906101000a900473ffffffffffffffffffffffffffffffffffffffff1673ffffffffffffffffffffffffffffffffffffffff1663a9059cbb33836040518363ffffffff1660e01b81526004016102e792919061080a565b6020604051808303816000875af1158015610306573d6000803e3d6000fd5b505050506040513d601f19601f8201168201806040525081019061032a919061086b565b507f8f28852646c20cc973d3a8218f7eefed58c25c909f78f0265af4818c3d4dc271338260405161035c92919061080a565b60405180910390a1600354600260008282546103789190610898565b925050819055507f66cbca4f3c64fecf1dcb9ce094abcf7f68c3450a1d4e3a8e917dd621edb4ebe06002546040516103b0919061051f565b60405180910390a150565b600160009054906101000a900473ffffffffffffffffffffffffffffffffffffffff1673ffffffffffffffffffffffffffffffffffffffff163373ffffffffffffffffffffffffffffffffffffffff161461044b576040517f08c379a000000000000000000000000000000000000000000000000000000000815260040161044290610918565b60405180910390fd5b600160009054906101000a900473ffffffffffffffffffffffffffffffffffffffff1673ffffffffffffffffffffffffffffffffffffffff166108fc479081150290604051600060405180830381858888f193505050501580156104b3573d6000803e3d6000fd5b50565b600160009054906101000a900473ffffffffffffffffffffffffffffffffffffffff1681565b60025481565b60008054906101000a900473ffffffffffffffffffffffffffffffffffffffff1681565b6000819050919050565b61051981610506565b82525050565b60006020820190506105346000830184610510565b92915050565b600080fd5b61054881610506565b811461055357600080fd5b50565b6000813590506105658161053f565b92915050565b6000602082840312156105815761058061053a565b5b600061058f84828501610556565b91505092915050565b600073ffffffffffffffffffffffffffffffffffffffff82169050919050565b60006105c382610598565b9050919050565b6105d3816105b8565b82525050565b60006020820190506105ee60008301846105ca565b92915050565b6000819050919050565b600061061961061461060f84610598565b6105f4565b610598565b9050919050565b600061062b826105fe565b9050919050565b600061063d82610620565b9050919050565b61064d81610632565b82525050565b60006020820190506106686000830184610644565b92915050565b7f4e487b7100000000000000000000000000000000000000000000000000000000600052601160045260246000fd5b60006106a882610506565b91506106b383610506565b92508282026106c181610506565b915082820484148315176106d8576106d761066e565b5b5092915050565b600082825260208201905092915050565b7f496e636f727265637420616d6f756e74206f662065746865722073656e740000600082015250565b6000610726601e836106df565b9150610731826106f0565b602082019050919050565b6000602082019050818103600083015261075581610719565b9050919050565b60008151905061076b8161053f565b92915050565b6000602082840312156107875761078661053a565b5b60006107958482850161075c565b91505092915050565b7f4e6f7420656e6f75676820746f6b656e7320617661696c61626c650000000000600082015250565b60006107d4601b836106df565b91506107df8261079e565b602082019050919050565b60006020820190508181036000830152610803816107c7565b9050919050565b600060408201905061081f60008301856105ca565b61082c6020830184610510565b9392505050565b60008115159050919050565b61084881610833565b811461085357600080fd5b50565b6000815190506108658161083f565b92915050565b6000602082840312156108815761088061053a565b5b600061088f84828501610856565b91505092915050565b60006108a382610506565b91506108ae83610506565b92508282019050808211156108c6576108c561066e565b5b92915050565b7f4f6e6c7920746865206f776e65722063616e2077697468647261770000000000600082015250565b6000610902601b836106df565b915061090d826108cc565b602082019050919050565b60006020820190508181036000830152610931816108f5565b905091905056fea26469706673582212206a2c7fce33f148c8f37dd5fa2eff7f79928a0fb61aa418b06015a3417f9b62e364736f6c63430008140033",
  "linkReferences": {},
  "deployedLinkReferences": {}
}